17:59:02.867120 00:17:0f:ac:6a:80 > 00:11:d8:4d:b8:a4, ethertype IPv4 (0x0800), length 72: 127.0.0.3.37433 > 127.0.0.1.4569: UDP, length 30
	0x0000:  4500 003a d7a0 0000 3811 080e 5247 17da
	0x0010:  7f00 0001 9239 11d9 0026 9599 8003 0000
	0x0020:  0000 0010 0000 060d 060c 6261 6c6d 6574
	0x0030:  5f67 726f 7570 1302 003c
17:59:02.867478 00:11:d8:4d:b8:a4 > 00:17:0f:ac:6a:80, ethertype IPv4 (0x0800), length 96: 127.0.0.1.4569 > 127.0.0.3.37433: UDP, length 54
	0x0000:  4518 0052 d318 0000 4011 0466 7f00 0001
	0x0010:  5247 17da 11d9 9239 003e cfe7 8004 0003
	0x0020:  0000 0007 0001 060f 060c 6261 6c6d 6574
	0x0030:  5f67 726f 7570 1f04 10b1 8761 1302 003c
	0x0040:  1210 0002 9239 5247 17da 0000 0000 0000
	0x0050:  0000
17:59:06.193321 00:11:d8:4d:b8:a4 > 00:17:0f:ac:6a:80, ethertype IPv4 (0x0800), length 140: 127.0.0.2.4569 > 127.0.0.1.4569: UDP, length 98
	0x0000:  4518 007e d31e 0000 4011 932d 7f00 0001
	0x0010:  d5a6 0581 11d9 11d9 006a b71b 8001 0000
	0x0020:  0000 000d 0000 0601 0b02 0002 010a 3038
	0x0030:  3030 3830 3031 3530 2d00 020b 3031 3237
	0x0040:  3338 3038 3030 3026 0100 2701 0028 0200
	0x0050:  0004
17:59:06.215654 00:17:0f:ac:6a:80 > 00:11:d8:4d:b8:a4, ethertype IPv4 (0x0800), length 60: 127.0.0.1.4569 > 127.0.0.2.4569: UDP, length 18
	0x0000:  4500 002e 12c9 0000 3d11 56eb d5a6 0581
	0x0010:  7f00 0001 11d9 11d9 001a 37ac 801e 0001
	0x0020:  0000 0018 0102 0607 0904 0000 0008
17:59:12.858981 00:11:d8:4d:b8:a4 > 00:17:0f:ac:6a:80, ethertype IPv4 (0x0800), length 57: 127.0.0.2.4569 > 127.0.0.1.4569: UDP, length 15
	0x0000:  4518 002b d537 0000 4011 9167 7f00 0001
	0x0010:  d5a6 0581 11d9 11d9 0017 fabe 8001 001e
	0x0020:  0000 1a16 0304 0605 2a01 00
